:03000000020E9F4E
:0C0E9F00787FE4F6D8FD758165020A3DFD
:100C45003830353120454153590054455354204BD4
:100C55004938395335325632002054454D503A20E3
:100C650025322E32665E430054494D453A202562B1
:0B0C7500753A2562753A256275200073
:100D9500E4FDFCC3ED9FEC9E5015E4FBFA0BBB0094
:0F0DA500010AEB647D4A70F50DBD00010C80E47E
:010DB400221C
:100DB500E4FDFCC3ED9FEC9E5015E4FBFA0BBB0074
:0F0DC500010AEB64024A70F50DBD00010C80E4D9
:010DD40022FC
:030E6C00120E0F54
:100E6F00D2A37F037E00120DB5C2A37F05020DB57D
:100E0F00EF1392A4EFC3131392A5EF1313543F13D1
:0C0E1F0092A6EF131313541F1392A72286
:100E7F00A907E9C4540FFF120E6CAF01120E0F0237
:020E8F000E6FE4
:100C0700E4FF120E0F7FC87E00120D95C2A2C2A18B
:100C1700C2A37F03120E6C120E6F120E6F7F0212A9
:100C27000E0F120E6F7F2C120E7F7F80120E7F7FAA
:0E0C37000C120E7F7F06120E7F7F01020E7FD1
:100D5200ED7007EF2480F54A8005EF24C0F54A7F45
:100D6200037E00120D95AF4A120E7F7F017E0002B4
:020D72000D95DD
:050EB3007F01020E7F2B
:080EAB00D2A2120E7FC2A222A6
:060CB2007B007A00792CA2
:100CB8008B4A8A4B894CAB4AAA4BA94C1204CBFFEE
:100CC80060143395E0FE120EAB7401254CF54CE42C
:070CD800354BF54B80E022D3
:100D2D00D2B37F087E00120DB5C2B37F5A120DB536
:100D3D00D2B37F08120DB5A2B3920A7F64120DB51E
:050D4D00D2B3A20A224E
:100D7400E4F54F7908C2B3E54FC313F54FD2B3304E
:100D8400B303434F807F047E00120DB5D9E7AF4F04
:010D9400223C
:020DD5008F4F3E
:100DD7007908C2B3E54F1392B37F057E00120DB5B4
:0A0DE700D2B3E54FC313F54FD9E86E
:010DF10022DF
:100AF700120D2D7FCC120DD57F44120DD5120D2D61
:100B07007FCC120DD57FBE120DD5120D748F4EE519
:100B17004E540FFCE41201A5E4FBFA7980784112E8
:100B270000FE8F4D8E4C8D4B8C4A120D74EF540F77
:100B3700C454F0FFE54E54F0FEC4540F4FF54EABCE
:100B47004DAA4CA94BA84AC000C001C002C003FC73
:100B5700E41201A5D003D002D001D00012000A8F01
:070B67004D8E4C8D4B8C4AB2
:010B6E002264
:0B0E2B007E00120E36C2A17F027E0086
:0C0E3600EF4E6007EF1F70F81E80F522E1
:0E0E9100D2A1120E32D2A07F027E00020E36D7
:100E4200D2A0D2A1120E32C2A0120E32C2A17F02D1
:050E52007E00020E36D7
:100E5700C2A0D2A1120E32D2A0120E32C2A17F02BC
:050E67007E00020E36C2
:080CDF00120E427FD0120DF24B
:100CE700E4FDD2A0D2A17F01FE120E36A2A0E4330A
:0E0CF700FD7F01120E2BBD01037F00227F0145
:010D050022CB
:020DF200AD074B
:100DF400E4FBEDA803088002C333D8FC3392A0D2ED
:0A0E0400A17F02120E2B0BBB08E8C1
:010E0E0022C1
:100C8000E4FDFCD2A0D2A17F787E00120E36A2A095
:100C9000E433FB7F787E00120E36C2A1EDBB010863
:100CA00025E0FD430501800325E0FD0CBC08D4AF21
:010CB000053E
:010CB1002220
:020B6F00AA07D3
:100B7100D200120CDFEF24FF9200AF02120DF2122D
:100B81000CE7EF24FF9200120E427FD1120DF212F8
:100B91000CE7EF24FF9200120C80AB077A00120CD5
:100BA100E7EF24FF9200120E57EAC4F854F0C86828
:100BB100FEEBC4540F48FF7C007D0A120523EB5461
:050BC1000F2FFBAF0344
:010BC600220C
:040BC7008F08AA05E4
:100BCB00D209EAFF7E007C007D0A120535EA75F03A
:100BDB000A84C454F04DFA120CDFEF24FF9209AFD4
:100BEB0008120DF2120CE7EF24FF9209AF02120D5F
:0C0BFB00F2120CE7EF24FF9209020E57E3
:100A3D00120E91120C07120EB3E4FDFF120D527B34
:100A4D00FF7A0C7945120CB87D01E4FF120D527B33
:100A5D00FF7A0C794F120CB87FE87E03120D9512B8
:100A6D000AF78F258E248D238C22E4FF120B6F8FB6
:100A7D00287F01120B6F8F2A7F02120B6F8F297542
:100A8D004DFF754E0C754F5E85255385245285237C
:100A9D00518522507B007A00792C12062AE4FDFF45
:100AAD00120D52120CB2E4FD7F0D120D527FDF7E3E
:100ABD0000120EAB7FF47E01120D95754DFF754E34
:100ACD000C754F6D852950852A518528527B007AEA
:100ADD0000792C12062A7D01E4FF120D52120CB280
:0A0AED007FF47E01120D95020A6CE1
:1000030002020EE86480F8E933E83360110460F01B
:10001300ED33EC337009E8FCE9FDEAFEEBFF220463
:1000230060DED3EB9FEA9EE99DE8C2E78CF0C2F75E
:1000330095F0400CE8CCF8E9CDF9EACEFAEBCFFB2A
:100043001201D985D0F05804700320D5B3E80470A9
:10005300075002B2D502021892D5EC0460F7E4CC43
:10006300C0E0C398F8603B94186008400DD0E0FBF3
:100073000201F0E4FBFAC9FC8028E830E406E4C995
:10008300FBE4CAFCE830E305E4C9CACBFCE8540747
:100093006010F8C3E913F9EA13FAEB13FBEC13FC52
:1000A300D8F130F52FC3E49CFCEF9BFFEE9AFEEDF5
:1000B30099FDD0E0FBEF4E4D4C701222DB030202A0
:1000C30015EC2CFCEF33FFEE33FEED33FDED30E7A3
:1000D300EB0201F0EF2BFFEE3AFEED39FDD0E0FB32
:1000E30050130BBB0003020218ED13FDEE13FEEFDA
:0800F30013FFEC13FC0201F005
:1000FB00020218EC5D046005E85904700302020E5D
:10010B001201D9580460F6EC4860F2EC7004FDFE65
:10011B00FF22C860DB2481C85009C39860025006D7
:10012B000202159850CAF582E9294B4A7005AB8239
:10013B0002020475F0007C1A7880C3EF9BEE9AEDF7
:10014B0099400DC3EF9BFFEE9AFEED99FDE842F04F
:10015B00DC23ACF0D0E0FFD0E0FED0E0FDAB8220A2
:10016B00E7101BEB60BAEC2CFCEF33FFEE33FEED2C
:10017B0033FD0201F0E803F830E705C0F075F0003D
:10018B00EF2FFFEE33FEED33FD40B830E7C280AA10
:10019B0075F020800E75F010800575F0087D007EDF
:1001AB00007F003392D530D50312058AEC33401013
:1001BB00EF33FFEE33FEED33FDEC33FCD5F0ED22E8
:0E01CB00E5F0247EA2D513CC92E7CDCEFF2224
:1005CE00E561244DF8E6056122784A300702784D40
:1005DE00E475F0011205980204CB2000EB7F2ED2B9
:1005EE00008018EF540F2490D43440D4FF30040B05
:1005FE00EF24BFB41A0050032461FFE562600215B8
:10060E00620565E5657002056430070D784AE4758C
:10061E00F001120598EF020511020D067403D207C0
:10062E008003E4C207F5618B4A8A4B894CE4F5627C
:10063E00F564F565E56260077F2012060980F575A1
:10064E0063FFC201C200C202C203C205C206C208D3
:10065E001205D7FF700D3007057F0012061AAF6521
:10066E00AE6422B4255FC2D5C2041205D7FF24D0D2
:10067E00B40A00501A75F00A786230D50508B6FF34
:10068E000106C6A426F620D5047002D20380D92412
:10069E00CFB41A00EF5004C2E5D204020907D2010A
:1006AE0080C6D20080C0D20280BCD2D580BAD2051C
:1006BE0080B47F201206092002077401B562004043
:1006CE00F11205CEFF120609020642D208D20680AA
:1006DE00951205CEFB1205CEFA1205CEF94A4B70D5
:1006EE000679FE7A097BFF20022EE562602A7E00E3
:1006FE008E827583001204E460060EEE656370F060
:10070E00C2D5EBC0E0EAC0E0E9C0E0EE120967D066
:10071E00E0F9D0E0FAD0E0FB1204CBFF60AAEBC008
:10072E00E0EAC0E0E9C0E0120609D0E02401F9D009
:10073E00E03400FAD0E0FBE5630460DCD563D980D9
:10074E0087D20280A212094A60F7E5637001041293
:10075E000223A963600DE563600914F5631209F1C4
:10076E00EF60F3EA30E702F404C3995077EAF42518
:10077E00630430E701E404F563800D12094A60C199
:10078E00EA05632563120223EA7860F630E701E496
:10079E00256304D5630420050114120967E4C0E043
:1007AE001209F17860E6601320E70714F61205F1DE
:1007BE00802204F6D0E014C0E07F001205F1E5635C
:1007CE0060071205E81563800B3005031205E8D0AB
:1007DE00E0020642D0E00480C512094A60A0E5633B
:1007EE00041202237860EAF6E56320050260010434
:0507FE0024041209674C
:1008030074FF04C0E01209F11205F1E5632005024B
:1008130060031205E8D0E0B563E87F451205FB7875
:1008230060E67F2B30E7047F2DF404C0E012060955
:10083300D0E075F00A84C0F01205F2D0E01205F2A0
:10084300020642791080027908C206C2088008D2E3
:10085300D5790A8004790AC2D5E563047002F56389
:10086300E4FAFDFEFF1205CEFC7B082001131205FE
:10087300CEFD7B1030000A1205CEFE1205CEFF7BA3
:1008830020EC3382D592D55013C3E43000069FFF8A
:10089300E49EFEE42001039DFDE49CFCE4CBF8C24E
:1008A30001EC700CCFCECDCCE824F8F870F38017B0
:1008B300C3EF33FFEE33FEED33FDEC33FCEB33FBE1
:1008C300994002FB0FD8E9EB300105F8D0E0C448AA
:1008D300B201C0E00AEC4D4E4F78207B0070C2EAB3
:1008E300B5630040BCC0E0120969D0F0D0E020013C
:1008F30004C4C0E0C4B201C0F01205F2D0F0D5F0D8
:10090300EB0206421205A806DF5308465806B04C10
:1009130006AC42084A4F08524408524906C54308E8
:10092300585507894607E7450753470A1E5006B43B
:100933002D06B82E06DB2B06BC2306D9200A072A70
:10094300067448000006D3E563B4FF03756306121B
:1009530005CEFC1205CEFD1205CEFE1205CEFF78A4
:1009630059020252790AA2D5200314300509B9109D
:10097300020404B9080104A2D52006025001042090
:1009830002689202B562005034C0E07F2030031940
:100993007F30A20272067205500F1209C0C202C252
:1009A30006C205C2087F30800F300503E9C0E0129C
:1009B3000609300503D0E0F9D0E0B562CC30051765
:1009C3007F30B9100C1206097F583004077F7880F6
:1009D30003B908031206093002057F2D0206097FB9
:1009E300202008F87F2B2006F322920280CF7F007D
:1009F300B4070050052459F8E6FF22286E756C6C85
:100A03002900D2011205CE3001F8C201786230D537
:100A13000108F60206742D504349581205CE2403EB
:100A2300B405004001E4900A19931205FA743A12CE
:0A0A330005FAD203756204020846BA
:1001D900E9D2E7C933E833F892D5EDD2E7CD33EC6C
:0701E90033FC5002B2D522E5
:1001F000EC30E7100FBF000C0EBE00080DBD000470
:100200000BEB6014A2D5EB13FCED92E7FD2274FF1B
:10021000FCFDFEFF22E480F8A2D574FF13FC7D8074
:03022000E480EF88
:10022300F920E72824F950037907E4F42402FB18A2
:10023300DBFDE624FB5014E9600DE4F618E604F652
:0F024300B40A08E4F6D9F57401F60A22C2D522EE
:10025200ED33EC3392D5FA602AB4FF33EDC2E77B7B
:10026200FF60067A027977E4227A02798020D50447
:100272007A02797B224E614E002B494E46002D496F
:100282004E4600E47A08F608DAFC7B00740722E89E
:10029200C0E0ECC0E0EDC0E0EEC0E0EFC0E0EA7527
:1002A200F010A4CAABF075F04DA42BFBE435F0FCC2
:1002B200EA2410FAEB34C5FBEC34D9FCEDC2E7FFBB
:1002C20075F056A4F42411C5F0F434C58FF0A42AB5
:1002D200E5F03BE43CF620E71412048BD0E0FFD0BB
:1002E200E0FED0E0FDD0E0FC1200FE8014F4041227
:1002F200048BD0E0FFD0E0FED0E0FDD0E0FC1203A2
:1003020055D0E0F8E6FAEDD2E7CD33EC332482FBA8
:10031200E4C3CF33CFCE33CECD33CD33DBF37B0744
:1003220075F00A846004F6081B0AE5F0F6088FF0FF
:10033200740AA4FFACF08EF0740AA42CFEACF05048
:10034200010C8DF0740AA42CFDE435F0F608DBDE16
:030352007407220B
:10035500EC4D6011E8497017ED33EC3304600DE4A2
:10036500FCFFFEFD22E933E8330470F802020E12A9
:1003750001D958046009E4CC2481500628500902AB
:100385000218284003020215C0E0EB4A7044B98008
:1003950006D0E0FB020204EF4E701CBD8008EBFFA7
:1003A500EAFEE9FD80EBE98DF0A4FEE5F002043EEE
:1003B500E9CDF9EAFEEBFFEF89F0A4FCE5F0CE8983
:1003C500F0A42EFFE435F0CD89F0A42DFEE435F040
:1003D5008067EF4E7005BD80D780C3EF8BF0A4AC6E
:1003E500F0EE8BF0A42CFCE435F0F8EF8AF0A42CA9
:1003F500E5F038FCE433CB8DF0A42CFCE5F03BF8BC
:10040500EE8AF0A42CFCE5F038F8E433CF89F0A4AB
:100415002CFCE5F038CF3400CE89F0A42FFFE5F0B1
:100425003EFEE433C98DF0A42EFEE5F039CD8AF009
:10043500A42FFFE5F03EFEE43DFD33D0E0FB500781
:100445000BBB000F020218EC2CFCEF33FFEE33FE62
:06045500ED33FD0201F091
:10045B003F8000004120000042C80000447A0000A9
:10046B00461C400047C35000497424004B1896802B
:10047B004CBEBC205A0E1BCA6753C21C749DC5AE22
:10048B00FB60065407601C23231204B9EB5438603D
:10049B00091204A51204B4120355ECF8EDF9EEFAA7
:1004AB00EFCB22EB1204B480F1543803241C9004DC
:1004BB005BFE93FC0EEE93FD0EEE930ECE93FF229E
:1004CB00BB010689828A83E0225002E722BBFE022F
:0904DB00E32289828A83E4932262
:1004E400BB010CE58229F582E5833AF583E02250CD
:1004F40006E92582F8E622BBFE06E92582F8E22217
:0D050400E58229F582E5833AF583E4932230
:10051100BB010689828A83F0225002F722BBFE01C9
:02052100F322C3
:10052300EF8DF0A4A8F0CF8CF0A428CE8DF0A42EEC
:02053300FE22A6
:10053500BC000BBE0029EF8DF084FFADF022E4CCAA
:10054500F875F008EF2FFFEE33FEEC33FCEE9DEC73
:10055500984005FCEE9DFE0FD5F0E9E4CEFD22EDB9
:10056500F8F5F0EE8420D21CFEADF075F008EF2F03
:10057500FFED33FD4007985006D5F0F222C398FDF4
:050585000FD5F0EA2291
:0E058A00C3E49FFFE49EFEE49DFDE49CFC2282
:10059800FAE6FB0808E6F925F0F618E6CA3AF62264
:1005A800D083D082F8E4937012740193700DA3A3E2
:1005B80093F8740193F5828883E4737402936860F6
:0605C800EFA3A3A380DFF6
:100D0600EFB40A07740D120D11740A309811A899E0
:100D1600B8130CC2983098FDA899C298B811F6304D
:070D260099FDC299F5992225
:00000001FF
