:1008E9000A21C0F9A4B0999282F88090012D0001E3
:0208F9002B00D2
:100799007590FE74212540F8E6F5A07F017E0012D0
:1007A90007B975A0FF7590FD74212531F8E6F5A00C
:1007B900E4FDFCC3ED9FEC9E5015E4FBFA0BBB0076
:0F07C900010AEB64504A70F50DBD00010C80E48D
:0107D80022FE
:0908FC00D283D282C282C283229F
:09090500D283C282D282D2832285
:1008A600E4FEEF339282D283C283EF25E0FF0EBED1
:0608B60008F0D283C283AA
:0108BC002219
:10088C00E4FFFED283A2829200EF25E0FFA200E4F7
:09089C00334207C2830EBE08EAD4
:0108A5002230
:04081500AB05AA077E
:10081900EBFF7E007C007D0A1206C5EB75F00A84A9
:10082900C454F04DFB1208FC7FD01208A6AF021287
:0A08390008A6AF031208A602090585
:0207D900AD076A
:1007DB001208FC7FD01208A6AF051208A61208FC5F
:1007EB007FD11208A612088C7E00120905AB07EE0A
:1007FB00C4F854F0C868FEEFC4540F48FF7C007D6A
:09080B000A1206B3EB540F2FFF93
:0108140022C1
:10084300AD32E4FF120815AD377F01120815AD353F
:100853007F02120815AD337F04120815AD2E7F05F4
:0A086300120815AD2F7F06020815DC
:1008BD007F021207D98F357F011207D98F37E4FFD9
:0608CD001207D98F322250
:1008D3007F041207D98F337F051207D98F2E7F0626
:0608E3001207D98F2F223D
:1005750012079975A0FF7590FB742125341207B5F4
:1005850075A0FF7590F77421252C1207B575A0FF8E
:100595007590EF742125421207B575A0FF7590DFA0
:1005A5007421253A1207B575A0FF7590BF742125F2
:1005B500431207B575A0FF75907F7421253D12077D
:1005C500B575A0FF7590FFC2B0742125441207B51B
:1005D50075A0FFD2B0C2B17421253E1207B575A032
:1005E500FFD2B1C2B27421253F1207B575A0FFD263
:1005F500B2C2B3742125301207B575A0FFD2B3225C
:10025000E52DB40423C3E53C9464E53B94005018B9
:100260007590FE75A0FF7F017E001207B97590FDA5
:1002700075A0FF1207B9801612079975A0FFD3E584
:100280003C94C8E53B94004005E4F53BF53CE52D86
:10029000B40523C3E53C9464E53B94005018759085
:1002A000FB75A0FF7F017E001207B97590F775A05E
:1002B000FF1207B980327590FB74212534F8E6F5FA
:1002C000A07F017E001207B975A0FF7590F7742119
:1002D000252C1207B575A0FFD3E53C94C8E53B94E7
:1002E000004005E4F53BF53CE52DB40623C3E53CB1
:1002F0009464E53B940050187590EF75A0FF7F0162
:100300007E001207B97590DF75A0FF1207B9802231
:100310007590EF74212542F8E6F5A07F017E00126A
:1003200007B975A0FF7590DF7421253A1207B575DE
:10033000A0FFE52DB40123C3E53C9464E53B9400A4
:1003400050187590BF75A0FF7F017E001207B97528
:10035000907F75A0FF1207B980227590BF74212588
:1003600043F8E6F5A07F017E001207B975A0FF757E
:10037000907F7421253D1207B575A0FFE52DB402CD
:1003800026C3E53C9464E53B9400501B7590FFC286
:10039000B075A0FF7F017E001207B9D2B0C2B1755F
:1003A000A0FF1207B980257590FFC2B074212544C3
:1003B000F8E6F5A07F017E001207B975A0FFD2B064
:1003C000C2B17421253E1207B575A0FFE52D640367
:1003D0007025C3E53C9464E53B9400501AD2B1C249
:1003E000B275A0FF7F017E001207B9D2B2C2B37509
:1003F000A0FF1207B98024D2B1C2B27421253FF800
:10040000E6F5A07F017E001207B975A0FFD2B2C247
:10041000B3742125301207B575A0FFD2B31207B906
:10042000D3E53C942CE53B94014005E4F53BF53CD9
:0104300022A9
:10071A00E53375F00A120691F540E53375F00A12D1
:10072A00069185F031E52E75F00A120691F534E549
:10073A002E75F00A12069185F02CE52F75F00A1233
:10074A000691F542E52F75F00A12069185F03AE511
:10075A003275F00A120691F53FE53275F00A120673
:10076A009185F030E53775F00A120691F544E537C0
:10077A0075F00A12069185F03EE53575F00A120603
:0F078A0091F543E53575F00A12069185F03D2291
:10000E0020B425C2867F327E001207B9052DE4F595
:10001E003BF53CE52DD394064003752D01E4F538F0
:10002E00F53930B4FD752B0120B71EE52B601A7F14
:10003E00147E001207B9E52D60061208431208D38C
:10004E00E4F52DF52BF538F539D3E5399430E5384F
:10005E0094754010E52D600C1208D3E4F52DF52BA8
:10006E00F538F539E52D700302024F1470030201C5
:10007E00791470030201C614700302020A24FE6092
:10008E005A1470030201362402600302024C20B699
:10009E00227F147E001207B91533C3E533648094B2
:1000AE0081500375331FE4F538F53930B60302027B
:1000BE004C80F830B50302024C7F147E001207B953
:1000CE000533D3E5336480949F4003753301E4F523
:1000DE0038F53930B50302024C80F820B6227F1471
:1000EE007E001207B9152EC3E52E6480948150034D
:1000FE00752E0CE4F538F53930B60302024C80F853
:10010E0030B50302024C7F147E001207B9052ED3C0
:10011E00E52E6480948C4003752E01E4F538F53994
:10012E0030B50302024C80F820B61A7F147E0012FE
:10013E0007B9152FC3E52F648094805003752F6384
:10014E0030B6FD801E30B50302024C7F147E0012C5
:10015E0007B9052FD3E52F648094E34003E4F52F10
:10016E0030B5FDE4F538F53902024C20B6227F1485
:10017E007E001207B91535C3E535648094805003AF
:10018E00753517E4F538F53930B60302024C80F8B0
:10019E0030B50302024C7F147E001207B90535D329
:1001AE00E535648094974003E4F535E4F538F53988
:1001BE0030B50302024C80F820B61F7F147E001269
:1001CE0007B91537C3E53764809480500375373B04
:1001DE00E4F538F53920B66680FB20B5617F147ED4
:1001EE00001207B90537D3E537648094BB4003E4AA
:1001FE00F537E4F538F53920B54480FB20B61F7F7E
:10020E00147E001207B91532C3E532648094805013
:10021E000375323BE4F538F53920B62280FB20B564
:10022E001D7F147E001207B90532D3E53264809427
:10023E00BB4003E4F532E4F538F53930B5FD120272
:02024E0050223C
:03000B0002086D7B
:10086D00C0E0C28D758CE5758AF805360539E53918
:0F087D0070020538053CE53C7002053BD0E032C7
:10043100C2867D0A7F071208157538007539D3E524
:100441003964D24538700575A0FE804CE53964B435
:100451004538700575A0FD803FE5396496453870D3
:100461000575A0FB8032E53964784538700575A0C3
:10047100F78025E539645A4538700575A0EF801875
:10048100E539643C4538700575A0DF800BE53964BA
:100491001E4538700375A0BF7590FE7F017E001266
:1004A10007B97590FD1207B97590FB1207B97590E0
:1004B100F71207B97590EF1207B97590DF1207B9F6
:1004C1007590BF1207B975907F1207B97590FFC279
:1004D100B01207B9D2B0C2B11207B9D2B1C2B212C9
:1004E10007B9D2B2C2B31207B9D2B3E5391539701F
:1004F100021538D3E5399400E5389400400302042D
:100501004020B714E4F532F53775350C75330175B4
:100511002E01752F0F120843D28CD2A9D2AF120827
:10052100BD1208D3D28612000EE536D3946440067C
:1005310012071AE4F536E52D703630840375410152
:10054100208415E5416011E4FF1207D98F32E532AD
:1005510070031208BDE4F541E535700BE53770070E
:10056100E53270031208D3A284928612057580B613
:04057100C28680B20C
:03000000020605F0
:0C060500787FE4F6D8FD75814402064CB5
:10069100C2D530F707B2D563F0FF05F030E70CB2F1
:1006A100D5F4048463F0FF05F080018430D502F4B1
:0206B100042221
:1006B300EF8DF0A4A8F0CF8CF0A428CE8DF0A42E5B
:0206C300FE2215
:1006C500BC000BBE0029EF8DF084FFADF022E4CC19
:1006D500F875F008EF2FFFEE33FEEC33FCEE9DECE2
:1006E500984005FCEE9DFE0FD5F0E9E4CEFD22ED28
:1006F500F8F5F0EE8420D21CFEADF075F008EF2F72
:10070500FFED33FD4007985006D5F0F222C398FD62
:050715000FD5F0EA22FF
:10061100020431E493A3F8E493A34003F68001F2CA
:1006210008DFF48029E493A3F85407240CC8C333EA
:10063100C4540F4420C8834004F456800146F6DFB9
:10064100E4800B01020408102040809008E9E47E58
:10065100019360BCA3FF543F30E509541FFEE493AE
:10066100A360010ECF54C025E060A840B8E493A375
:10067100FAE493A3F8E493A3C8C582C8CAC583CAA0
:10068100F0A3C8C582C8CAC583CADFE9DEE780BE58
:0108FB0000FC
:00000001FF
