:0A000000020100D200D201D2023248
:03001B000203BD20
:10010000759842758920E587D2E7F587758DF3D21A
:100110008ED28875A88112036F12024012025675A2
:100120003031753131753210B291D200D201D20224
:10013000B292B296B2971202B11203CAD200D201A1
:10014000D20280EC2000030201B5C20074541203F5
:10015000B574491203B5744D1203B574451203B555
:1001600074201203B51202B1E532C4540F243012C8
:1001700003B5E532540F24301203B5743A1203B5B7
:10018000E531C4540F24301203B5E531540F243047
:100190001203B5743A1203B5E530C4540F2430127B
:1001A00003B5E530540F24301203B5740D1203B5B6
:1001B000740A1203B52220010302023FC2017444F3
:1001C0001203B574411203B574541203B574451289
:1001D00003B574201203B51202D9E533C4540F24B9
:1001E000301203B5E533540F24301203B5743A12BC
:1001F00003B5E534C4540F24301203B5E534540F6D
:1002000024301203B5743A1203B5E535C4540F24F3
:10021000301203B5E535540F24301203B5743A1289
:1002200003B5E536C4540F24301203B5E536540F38
:1002300024301203B5740D1203B5740A1203B522EB
:1002400012037474D01203067400120306740012B1
:1002500003061203862212037474D0120306740775
:10026000120306741012030612038622120374741A
:10027000D01203067400120306E530120306E531BE
:10028000120306E532120306120386221203747467
:10029000D01203067403120306E533120306E53495
:1002A000120306E535120306E5361203061203862D
:1002B0002212037474D01203067400120306120390
:1002C0009274D112030612032BF53012032BF53171
:1002D00012034DF5321203862212037474D01203F6
:1002E00006740312030612039274D112030612035A
:1002F0002BF53312032BF53412032BF53512034D76
:10030000F53612038622C0077F08C291339290000F
:1003100000D2910000DFF3C29100000000D290D221
:100320009100A2900000C291D00722C0077F08D29E
:1003300090D29100A2903300C291000000DFF2C27F
:100340009000D29100000000C291D00722C0077F28
:1003500008D290D29100A2903300C291000000DF39
:10036000F2D29000D29100000000C291D00722D2B8
:1003700091D29022D290D2910000000000C2900051
:10038000000000C29122C290D2910000000000D271
:100390009022D290D2910000000000C29000000094
:1003A00000C2910000220000D2910000220000C291
:1003B00091000000223099FDC299F59922C28FC2A6
:1003C0008E758B30758DE8D28E32E532C4540F5362
:1003D000B03F4410F5A0120432E532540F53B03F41
:1003E0004420F5A0120432E531C4540F53B03F4409
:1003F00040F5A0120432E531540F53B03F4480F56C
:10040000A0120432E530C4540F53B03F43B0401241
:100410000432E530540F53B03F43B080120432220F
:10042000C28E758DFF758B9BD28E308FFDC28FC2B1
:100430008E227801D8FE22C2A0C2A1780874FFC41F
:100440001204A4780874FFC41204A4780874FFC4CA
:100450001204A4D2A1B293000000C2A1B29322C29E
:10046000A0C2A1780875F00AE53084FA7905E5F0B4
:100470001204B42A1204A4780875F00AE53184FA4B
:100480007905E5F01204B42A1204A4780875F00A7C
:10049000E53284FA7905E5F01204B42A1204A4D2F4
:1004A000A1C2A122C33392A2D2A0000000C2A0B276
:0804B00094D8F12213D9FD22BA
:00000001FF
